:0200000460009A
:100000004643464200000156000000000103030081
:1000100000000000000000000000000000000000E0
:1000200000000000000000000000000000000000D0
:1000300000000000000000000000000000000000C0
:1000400000000000010408000000000000000000A3
:100050000000800000000000000000000000000020
:100060000000000000000000000000000000000090
:100070000000000000000000000000000000000080
:10008000EB04180A063204260000000000000000FD
:10009000050404240000000000000000000000002F
:1000A0000000000000000000000000000000000050
:1000B0000604000000000000000000000000000036
:1000C0000000000000000000000000000000000030
:1000D00020041808000000000000000000000000DC
:1000E0000000000000000000000000000000000010
:1000F0000000000000000000000000000000000000
:10010000D8041808000000000000000000000000F3
:100110000204180804200000000000000000000095
:1001200000000000000000000000000000000000CF
:10013000600400000000000000000000000000005B
:1001400000000000000000000000000000000000AF
:10015000000000000000000000000000000000009F
:10016000000000000000000000000000000000008F
:10017000000000000000000000000000000000007F
:10018000000000000000000000000000000000006F
:10019000000000000000000000000000000000005F
:1001A000000000000000000000000000000000004F
:1001B000000000000000000000000000000000003F
:1001C000000100000010000001000000000000001D
:1001D000000001000000000000000000000000001E
:1001E000000000000000000000000000000000000F
:1001F00000000000000000000000000000000000FF
:10020000FFFFFFFFFFFFFFFFFFFFFFFFFFFFFFFFFE
:10021000FFFFFFFFFFFFFFFFFFFFFFFFFFFFFFFFEE
:10100000D10020432914006000000000000000000F
:10101000201000600010006000C0066000000000AA
:101020000000006000CC060000000000FFFFFFFF92
:10103000FFFFFFFFFFFFFFFFFFFFFFFFFFFFFFFFC0
:10104000FFFFFFFFFFFFFFFFFFFFFFFFFFFFFFFFB0
:10105000FFFFFFFFFFFFFFFFFFFFFFFFFFFFFFFFA0
:10106000FFFFFFFFFFFFFFFFFFFFFFFFFFFFFFFF90
:10140000884207D0904205D251F8043B40F8043B93
:101410008242F9D8704700BF884204D2002340F8C6
:10142000043B8142FBD87047664B4FF42A01664A61
:1014300066482DE9F0475A641864654A99639546F1
:10144000BFF34F8FBFF36F8F00F04AFA614B082054
:10145000614A6249C3F854016148FFF7D1FF614A0C
:1014600061496248FFF7CCFF61496248FFF7D4FF4A
:10147000614C62494FF470000023614A086044F8EF
:1014800023200133B02BFAD15E4B80215E4A03F852
:10149000011B9342FBD14F4D4FF080385B494FF019
:1014A000FF325B4B0026DFF8A4A1DFF8A4911C609B
:1014B000C5F80481C5F800A1C5F8F480C5F8F0901E
:1014C0000B68544F43F4E0230B60FB693D4923F064
:1014D0007F0343F04003FB617B6A23F07F0343F00B
:1014E00040037B628A66CA660A674A6700F0FEF9B3
:1014F000494A4A4B6320A2630321E363484A494BAC
:10150000106000F160401E6042F8041C00F6A170FB
:101510004549464AC3F8082D0B68454A43F0807395
:101520000B601368434943F00103136003680B60C9
:1015300000F02CFCC5F804813F48C5F800A1C5F8AF
:10154000F480C5F8F09000F08BFDF96E3B4A41F451
:1015500040513B4BF9661660C2F80861C2F8186149
:10156000C2F82861C2F838619A6BD20708D442F6F3
:101570001562344959651A659A6B42F001029A6303
:101580002F4A314C936843F00113936000F020FA26
:1015900000F07AF900F07CFD00F02AFC00F0A2F9DE
:1015A0002368132BFCD900F0B1FC2368B3F5967FB8
:1015B000FBD300F099F900F057FD00F059FD30BF62
:1015C000FDE700BF00C00A40FFFFFFAA07002000A0
:1015D0000000022000800D4048D705007422006002
:1015E00000000000C0C20020C0F90560000000201B
:1015F000A09C0120C0C2002000C0002088ED00E0B7
:10160000D54A050000E400E0A0E400E024ED00E09D
:1016100008ED00E000C00F40215F0500255F0500D8
:1016200014E000E018E000E0FCED00E00000202005
:10163000001000E0BC9901200046C3230040084090
:1016400000400D400000C056C09901201B1018201A
:101650000C0D11132DE9F041294F00254269012499
:10166000B96B4FF0020E16684FF4303821F47C014C
:101670000369DFF89CC041F48021B9633168576881
:10168000394331604FF001161E49C3F810E01D6167
:10169000C3F848C05C629962C3F82C809F6C1A49F9
:1016A0001F651D629E651C61037E184E02EB0315CB
:1016B0002C7A2B4601EB0414A46826602C7AED6882
:1016C00001EB0414646825601C690CB15B6923603C
:1016D000407E0E4C02EB001393F828001A4601EBF3
:1016E00000108068046093F82840D86A01EB041168
:1016F0004B681860136B0BB1526B1A60BDE8F08138
:1017000000C00F40B80B0505D808002061F80100A3
:101710003B3728194369027E03EB0212F0B4147AB6
:101720008C4209D01A7AFF2A06D08A4228D01A7E23
:10173000FF2A01D08A4201D0F0BC704701252E4615
:1017400093E806000968114217D00F4A03EB06130D
:1017500005270E4E02EB041461680F60197A02EB44
:10176000011189680E601C7AD96802EB0412526874
:1017700011601A690AB15B6913600576F0BC7047A5
:1017800000252E46DCE700BFD808002061F80100E4
:1017900043690B4A03EB011010B4017A094C02EBC8
:1017A000011189680C60047AC16802EB0412526866
:1017B000116002690AB1436913605DF8044B704718
:1017C000D808002061F801004369427E03EB021251
:1017D000F0B492F828408C420BD093F82820FF2ACE
:1017E00007D08A422BD093F83820FF2A01D08A42B2
:1017F00001D0F0BC704701252E4693E80600096829
:10180000114219D00F4A03EB061305270E4E02EBC7
:10181000041461680F6093F8281002EB01118968C5
:101820000E6093F82840D96A02EB041252681160E6
:101830001A6B0AB15B6B13604576F0BC70470025EC
:101840002E46DAE7D808002061F8010043690C4A07
:1018500003EB011010B490F828100A4C02EB0111B0
:1018600089680C6090F82840C16A02EB0412526843
:101870001160026B0AB1436B13605DF8044B704753
:10188000D808002061F80100114B1249D86E0A46B1
:1018900040F4403030B4D86640F23765D86EA024AA
:1018A00040F44070D8664D648C64936C1B06FCD485
:1018B000094B40F23760A0211A4658649964936C32
:1018C00013F08003FBD1054A137030BC704700BF92
:1018D00000C00F4000400C4000800C409C9B012049
:1018E000704700BF704700BF704700BFF0B5244A83
:1018F0000020244B4FF0100C234C1126DFF8C8E0D9
:10190000122720600125C2F800C0C3F800E016606D
:10191000DFF8B8E01D4EC3F800E01D4917601E60F7
:1019200041F015011B4F1C4E17601E601B4F1C4ED3
:1019300017601E601B4F11601B4E1C491F60166014
:101940001B4F19601B4E1C4917601E601B4F116016
:101950001B4E1C491F60166019602560BFF34F8F36
:10196000BFF36F8FC3F8B001BFF34F8FBFF36F8F1B
:1019700052F8883C43F4403342F8883CF0BD00BF45
:101980009CED00E0A0ED00E094ED00E00900100007
:10199000A09C012013002000210002071400002059
:1019A00025000813090000101600202027000B1343
:1019B0001700004033001013180000602F000B07C1
:1019C000190000702F000B133F00001025000803C2
:1019D000F0B58D4B18228D4E01208D4948F20C7EBA
:1019E0008C4D4FF0FF378C4C83B0C3F85C12C3F8BA
:1019F00060520025C3F86412C3F868424FF40054E3
:101A0000C3F86C628549C3F87062C3F87462C3F8A6
:101A10007862834EDA661A675A679A67DA67C3F89C
:101A20008020C3F88420C3F8882040F20562C1F802
:101A30002C03C1F83003C1F83403C1F83803C1F8EE
:101A40003C03C1F850032946B36976481840764BE9
:101A500003437648B361D6F8843043F00C03C6F8EC
:101A600084300226036833430360036803EA0E0EE2
:101A70006F4B4EEA0303DFF8F0E103606D4B476004
:101A8000DEF808703B406C4F43F000538360C3683E
:101A900023F07803C360036A1F40684B3B43664FE3
:101AA0000362036A1F40654B3B43654F4362876295
:101AB000C762DEF8B830634F23F03F0343F0010301
:101AC000C0F8B830DEF8BC30DFF884E123F03F0323
:101AD00043F00103C0F8BC30056104660767C0F835
:101AE000802044664767C0F884200468564B24F081
:101AF0000204564A0460C0F818E0C66143F8041BAB
:101B00009342FBD1494B1A68194642F001021A6010
:101B10000B68464A13F00103FAD14D4E022540F2FC
:101B2000F56440F2664040F299414A4F966142F2B4
:101B30000146D56140F23545C2F8004242F2012427
:101B4000C2F810020120C2F820121146C2F8307209
:101B500007F15A47C2F8346207F51377C2F84052CA
:101B60003D4E3E4DC2F85072C2F85462C2F8605207
:101B7000C2F86442C2F8A030C2F8A430C2F8B00083
:101B80004B692A4ADD07FBD5012300244FF480303E
:101B900011465361C2F8A040C2F8A400C2F8B030A8
:101BA0004B69224ADC07FBD5012300244FF40030A7
:101BB00011465361C2F8A040C2F8A400C2F8B03088
:101BC0004B691A4AD807FBD5012300242448114643
:101BD0005361C2F8A040C2F8A400C2F8B0304B690B
:101BE000124ADB07FBD5D2F8003145F60D51212012
:101BF0009BB250618B4239D01A4B00221A605A6056
:101C00009A60DA6003B0F0BD00801F40F9700100F7
:101C1000F9B00100F9100100F900010000841F4033
:101C200000C00F40FFFCFF1F000300A000402A403F
:101C30001200FFFFFF37F70000FFF07C400000803C
:101C4000FF000F836300020000422A4000432A4045
:101C5000F05AF05A9F041830063201263806180A46
:101C600004000300449C012000802A4000244FF41B
:101C7000802001231146C2F8A040C2F8A400C2F897
:101C8000B0304B693B4ADF07FBD501234FF400041A
:101C9000002011465361C2F8A040C2F8A400C2F867
:101CA000B0304B69334ADE07FBD501234FF4000403
:101CB0004FF4803011465361C2F8A040C2F8A4002E
:101CC000C2F8B0304B692B4ADD07FBD501234FF436
:101CD00000044FF4003011465361C2F8A040C2F82E
:101CE000A400C2F8B0304B69224ADC07FBD50123BF
:101CF0004FF40004204811465361C2F8A040C2F8D6
:101D0000A400C2F8B0304B691A4AD807FBD5D2F804
:101D1000003145F60D5121209BB250618B4210D00D
:101D2000164B08224FF400041A7015490020154A7A
:101D300001230090521A1448224400F0A5F903B080
:101D4000F0BD4FF400044FF4802101231046C2F887
:101D5000A040C2F8A410C2F8B03043690549DB07BF
:101D6000FBD50120054B10224FF0807448611A709A
:101D7000DBE700BF00402A4004000300AB9B0120CA
:101D80000000007000000070449C0120F0B4174A6D
:101D900040274FF480314FF480564FF400554FF4F4
:101DA000404443F24200136913F0020F06D09461DD
:101DB00051619061136913F0020FF8D113F4005FC1
:101DC00001D15561EFE713F4805F01D15661EAE775
:101DD000002BE8DA13F4803F01D09161E3E75B0662
:101DE00001D45761DFE7F0BC704700BF00800D40B1
:101DF000394A03203949F3EE095A13689FED386ACE
:101E000023F00103DFED376AF0B4136000241061A2
:101E1000D1F8E030344FD8B2C3F30B211B0D334E51
:101E200007EE100A05EE101A07EE903A304BB8EEA6
:101E3000C55A304DB8EEC77A3060F8EEE77A2960BF
:101E40002D4937EE466A2D4E77EEC57A2C4877EE4F
:101E5000666A2C4D37EE657A26EE276AC7ED007A62
:101E600066EEA76A176867EE277A83ED007AC6EEFA
:101E7000075A86EE876AC7EE876A35EE857AFCEEEA
:101E8000C77A36EE057A17EE903ABCEEC77A47EA83
:101E9000035376EE857A136017EE103AD2F810717C
:101EA000FCEEE77A01EA0341394317EE903AC2F8B3
:101EB0001011C3F30B03D2F810110B43C2F8103109
:101EC000136843F0020313603470C0F840510E4BA6
:101ED0000122F0BC1A60704780810D4000441F4011
:101EE0000000AA420000B442787301207073012000
:101EF000747301206C7301200000FF0F40E400E0C8
:101F000000C00020994C050008E100E0304B40F68D
:101F1000617270B5C3F8202140F2044500F0ACF8BE
:101F20002C492D48D1F880202C4C42F003022C4B38
:101F3000C1F88020C0F86051226813401BB9D0F866
:101F4000A8319A071AD0244B4FF00041234A51631D
:101F50001A46D3F8401141F00201C3F84011D2F8FB
:101F600040319B07FBD44FF400301E491B4B4FF010
:101F70000042086019209A6300F082F81A4D00228E
:101F8000164B4FF08041144C0A26996328461A607C
:101F90001146C4F8A8614FF4207200F05DF84FF4C8
:101FA000810640F243114FF48000104B104A2E601E
:101FB0002864C4F85851C4F84811C3F804220D4AE3
:101FC0004FF4003101231160C4F8403170BD00BFEF
:101FD00000800D4000C00F4000002E4000900D40DA
:101FE000001C1E008CE200E00000002000C0002069
:101FF000654E05000CE100E008B50E4B1B6E9B071B
:1020000000D4FBBE72B60C4B00200C4AC3F8400152
:1020100003F160430A49A3F55F2311649D46BFF3B2
:102020004F8F084A03F5E0430749126818461960C4
:102030009368984700441F4000002E4000C00A40AB
:10204000030020001C002000000012EBF8B500BFC8
:10205000F8BC08BC9E4670475FF800F0119305007D
:102060005FF800F0493C05005FF800F05D8B05006B
:102070005FF800F0ED4205005FF800F0055605003E
:102080005FF800F00D3F05005FF800F0C95F050044
:102090005FF800F0FD470500010100006536010012
:0420A00081D10400E6
:1020A40080C00F4000000003190000001000000071
:1020B400E8841F4001000000FF000000FF00000052
:1020C40000000000000000001800000010000000E4
:1020D400E4841F4001000000FF000000FF00000036
:1020E40000000000000000001F000000252905007A
:1020F40070C00F40000C000011000000110000002F
:10210400E0841F40020000002C00000012000000C8
:10211400E0841F40010000001000000011000000D6
:10212400DC841F40020000002D00000012000000AB
:10213400DC841F40010000001E0000001929050076
:1021440070C00F40C0000000120000001300000027
:10215400D0841F4001000000FF000000FF000000C9
:102164000000000000000000130000001300000045
:10217400CC841F4001000000FF000000FF000000AD
:1021840000000000000000001C0000000D290500F4
:102194000101010101010101160355005300420030
:1021A4002000530065007200690061006C000000AB
:1021B40018035400650065006E0073007900640024
:1021C400750069006E006F000403090409024B00E6
:1021D400020100C032080B000202020100090400DF
:1021E400000102020100052400100105240101017F
:1021F40004240206052406000107058203100010CA
:1022040009040100020A000000070503024000005F
:10221400070584024000000009024B00020100C0CF
:1022240032080B000202020100090400000102024C
:102234000100052400100105240101010424020603
:1022440005240600010705820310000509040100A6
:10225400020A0000000705030200020007058402C9
:10226400000200000A060002EF0201400100010022
:10227400000000000000000000000000000000005A
:10228400000000000000000000000000000000004A
:102294004FF08442F8B5936955691D400DD0244F21
:1022A4000126956195FAA5F4B4FA84F457F824301C
:1022B40006FA04F49847A543F4D11E4A9369556974
:1022C4001D400DD01C4F0126956195FAA5F4B4FA72
:1022D40084F457F8243006FA04F49847A543F4D15B
:1022E400164A936955691D400DD0154F0126956115
:1022F40095FAA5F4B4FA84F457F8243006FA04F4F1
:102304009847A543F4D10F4A936955691D400ED0EF
:102314000D4F0126956195FAA5F4B4FA84F457F8A3
:10232400243006FA04F49847A543F4D1F8BDF8BD67
:10233400F4B700200040004274B80020008000423E
:10234400F4B8002000C0004274B9002010B5054C58
:10235400237833B9044B13B10448AFF3008001234D
:10236400237010BDB8C400200000000044D705004D
:10237400084B10B51BB108490848AFF30080084862
:10238400036803B910BD074B002BFBD0BDE8104018
:10239400184700BF00000000BCC4002044D705005B
:1023A400C0C20020000000000020704700207047D9
:1023B40000207047002070474FF0FF30704700BF87
:1023C400014B01221A707047B0BE0020014B01225C
:1023D4001A707047C89B0120014B01221A70704784
:1023E400C99B0120704700BF704700BF38B5054C3A
:1023F400A4F1E0052046103C53F076F9AC42F9D143
:1024040038BD00BF2C72012038B5054CA4F52075E9
:102414002046103C53F068F9AC42F9D138BD00BFF6
:10242400FC5B012038B5054CA4F1A005103C204606
:1024340053F05AF9AC42F9D138BD00BFF43401204D
:10244400044B10B5044640F8103B50F0A5FA204662
:1024540010BD00BFF804002010B5044652F0F4FF8C
:10246400204610BD08B14FF077B8086808B14DF0A8
:1024740037BB4FF0FF3070472DE9F84F0A9E0546F1
:102484008B46924699469DF82C800C9F00E0254689
:102494002C6A002CFBD1242054F002F928629BF80A
:1024A40000509AF8001099F800203B7805704170AC
:1024B400827083764661047680F819800462BDE8F0
:1024C400F88F00BF2DE9F04FDFF8B4A085B05AF8BB
:1024D4002030002B30D0DFF8AC90411C264ADFF8C6
:1024E400A8B003905AF82160D3F800805D683046A4
:1024F4001F7A224CC9F8003015602760CBF80080A1
:10250400C068E8B14468A542FAD1047AA742F7D179
:10251400DB68002BE6D1039B5AF8234064B12346C1
:102524009C4218464FF0100120D0DB68E36054F061
:10253400B9F8E368002BF3D105B0BDE8F08F264667
:10254400F468002CFBD110200292019154F0A8F8F9
:10255400D9F80030F0600772C460DB68C0F800800E
:102564004560029A0199002BBCD1D4E7E368002BA3
:10257400D6D105B0BDE8F08FE8540120E454012021
:102584002C620120DC4D0120EC5401200B4B10B5D2
:1025940053F8204084B123469C4218464FF0100162
:1025A40007D0DB68E36054F07DF8E368002BF3D1D7
:1025B40010BDE368002BEFD110BD00BF2C620120D9
:1025C40010B5052053F082F804464FF4807053F0A0
:1025D4007DF82146C2B20248BDE810404CF08ABCE6
:1025E4001C4F012071EE606A9FED107ADFED107AC6
:1025F40030EE270AC6EE877AB0EE607AA7EE807ACC
:10260400B4EE471AF0EE477AF1EE10FA98BFF0EE06
:10261400417AF4EE670AF1EE10FAA8BFF0EE607AA0
:10262400FCEEE77A17EE900A704700BFDB0F4940D3
:10263400DB0FC93FF8B52DED088B06460F4658F061
:10264400BDF902240025B7EE00AB41EC1B0BB1EE43
:10265400CB9B06E058F0E0F913431ED0013445F15A
:102664000005B4EE499BB0EE498BF1EE10FA18D197
:1026740038EE0A8B2046294658F0A0F922462B460C
:1026840041EC170BB4EEC87B30463946F1EE10FA34
:10269400E0D4BDEC088B0120F8BDBDEC088B002014
:1026A400F8BDB0EE4B0B56F0E7F8B0EE408BDFE729
:1026B400034A044B12681B6840F82320704700BF8C
:1026C400EC540120E4540120044B054A1B681268B1
:1026D400003318BF01238354704700BFEC5401201A
:1026E400E4540120054B1B68834205D1044B1B684D
:1026F400003318BF01230B70704700BFE45401205E
:10270400EC540120172900B514DD18391729FCDC15
:1027140040000B4BC21783FB00E3401AC2EBA30338
:1027240003EB4303C0EB0310401848BF01304010D3
:102734005DF804FB0029EBDA1831FDD4E8E700BFAB
:10274400ABAAAA2A0028F0B525DB4FF0010E144EDF
:10275400D417144D86FB027C55F823700025C4EB76
:102764006C0404EB4404A2EB8404714486FB013240
:10277400CB17C3EB620303EB4303A1EB83031B1BE4
:1027840048BF0C3327FA03F3DB0700D50135854234
:10279400EBDB0846F0BD40424FF0FF3ED7E700BFF9
:1027A400ABAAAA2AAC04002010B4521A9DF8044023
:1027B400A4EB030415D0401A002C114604FB00F0CE
:1027C40017DB002AB8BF511C00EB610191FBF2F04A
:1027D40001FB02F1034400291BDB18465DF8044B9E
:1027E4007047201E5DF8044BB8BF013003EB600056
:1027F4007047002AB8BF511CA0EB610090FBF2F4B3
:1028040000FB02F123440029E7DB581C5DF8044B6C
:102814007047581E5DF8044B704700BF10B4019C0C
:10282400521AA4EB030415D0401A002C114604FBE1
:1028340000F017DB002AB8BF511C00EB610191FBCB
:10284400F2F001FB02F1034400291BDB18465DF89A
:10285400044B7047201E5DF8044BB8BF013003EBF6
:1028640060007047002AB8BF511CA0EB610090FBC8
:10287400F2F400FB02F123440029E7DB581C5DF865
:10288400044B7047581E5DF8044B7047836C13B1BA
:1028940018464FF0A9B8C06C08B14DF0D7BD7047C9
:1028A40000B5836C83B08DF8071043B1184601223C
:1028B4000DF107014FF09EF803B05DF804FBC06C06
:1028C4000028F9D001220DF107014DF019FF03B0E2
:1028D4005DF804FB836C00B583B063B11846012234
:1028E4000DF107014EF06AFD01280CD19DF8070097
:1028F40003B05DF804FBC06C28B101220DF107019F
:102904004DF014F8F0E74FF0FF30F1E7836C13B1AA
:1029140018464FF06FB8C06C08B14DF0F1BE704767
:10292400826C62B1137803F0080303F0FF000BB369
:10293400D3695069181A48BF6FF000407047C16CE2
:10294400C9B191F8313003F0080303F0FF008BB1F3
:10295400D1E90423D1E9000130B4101A4FF0000585
:102964006FF0004463EB01018D4208BF844200D242
:10297400204630BC70470846704700BF836C13B1D3
:1029840018464EF0E9BDC06C08B14DF0A9B84FF03F
:10299400FF307047F0B53C4C074685B00E46A06C3E
:1029A400002843D0022239494FF024F8384B0A2238
:1029B400354D6846196852F02FFF6946284652F093
:1029C40087FD684652F090FEA06C002849D0012291
:1029D40030494FF00FF8A06C2B4B00284CD0042248
:1029E4002D494FF007F8284D0A223946684652F01F
:1029F40013FF6946284652F06BFD684652F074FE98
:102A0400A06CD8B1022225494EF0F4FFA06C1E4BF5
:102A1400F8B1032222494EF0EDFF31461A4852F034
:102A240057FD194852F07AFD05B0F0BDE06C00285E
:102A3400BCD0022215494DF063FEB7E7E86C0028CC
:102A4400EBD0022215494DF05BFEA06C0E4B002822
:102A5400DFD1D86C0028E0D0032211494DF050FE9C
:102A6400DBE7E86C0028BED001220A494DF048FE9D
:102A7400A06C054B0028B2D1D86C0028B3D0042236
:102A840005494DF03DFEAEE7985F0120340D00206E
:102A9400EC540120380D00203C0D0020440D002092
:102AA400480D0020F0B54B4C074685B00D46A06C90
:102AB400002859D0022248494EF09CFF474B0A2275
:102AC400444E6846196852F0A7FE6946304652F0F3
:102AD400FFFC684652F008FEA06C002867D0012273
:102AE4003F494EF087FFA06C3A4B00286AD004227D
:102AF4003C494EF07FFF374E0A223946684652F071
:102B04008BFE6946304652F0E3FC684652F0ECFD19
:102B1400A06C002838D0022233494EF06BFFA06C21
:102B24002C4B00283BD0012230494EF063FF304B40
:102B34000A22284E6846196852F06EFE69463046ED
:102B440052F0C6FC684652F0CFFDA06CA0B1022240
:102B540028494EF04FFF29461E4852F0B9FC1D4843
:102B640052F0DCFC05B0F0BDE06C0028A6D00222D7
:102B740019494DF0C5FDA1E7F06C0028EBD0022205
:102B84001C494DF0BDFDE6E7F06C0028CFD00222D1
:102B940015494DF0B5FDA06C0E4B0028C3D1D86C7F
:102BA4000028C4D0012211494DF0AAFDBFE7F06C02
:102BB4000028A0D001220A494DF0A2FDA06C054BCB
:102BC400002894D1D86C002895D0042205494DF0F2
:102BD40097FD90E7985F0120340D0020EC5401200C
:102BE400380D00203C0D0020440D0020005400202E
:102BF400E45401204C0D00202DE9F04FB0F1000801
:102C040085B047DD304F0024304EB946304DB246D2
:102C1400DFF8CCB013E04EF0D1FB012820D0FF2325
:102C24002A784FF0FF3133700ABB0134DBF80020FF
:102C3400E4B203EB02234445CBF800302BDABB6C3F
:102C4400012269461846002BE5D1D9F84C300122FF
:102C540069461846002BE2D04CF068FE0128DED10C
:102C64009DF800302A7819463370002ADDD01022EE
:102C7400C9B2684652F0D0FD6946164852F028FCA5
:102C8400684652F031FD0121134855F061F99AF874
:102C94000030CAE70E4D2B789BB101210F4855F047
:102CA40057F90F4B10226846196852F0F1FD694636
:102CB400084852F00DFC074852F030FC684652F0C8
:102CC40013FD05B0BDE8F08F985F0120BA9B012089
:102CD400EC9B01205C7400205052002040420020F4
:102CE400745D0120214BD3F8BC2013685068196827
:102CF400936810B404681940D06804421BD0137C54
:102D040003F0030309B143F0040343F008039910EB
:102D1400013B11740D2B0BD8DFE803F021071B07CF
:102D24000A152121150A071B07215369013B536129
:102D34005DF8044B7047137C03F003030029E6D0CD
:102D440043F00403E3E753695DF8044B023B53612A
:102D5400704753695DF8044B0233536170475369FC
:102D64005DF8044B01335361704700BF0C460120EA
:102D7400214BD3F8C020136850681968936810B4C5
:102D840004681940D06804421BD0137C03F0030389
:102D940009B143F0040343F008039910013B117493
:102DA4000D2B0BD8DFE803F021071B070A1521219F
:102DB400150A071B07215369013B53615DF8044B56
:102DC4007047137C03F003030029E6D043F00403A7
:102DD400E3E753695DF8044B023B53617047536961
:102DE4005DF8044B02335361704753695DF8044B3B
:102DF40001335361704700BF0C460120214BD3F8C7
:102E0400C420136850681968936810B404681940A2
:102E1400D06804421BD0137C03F0030309B143F0D0
:102E2400040343F008039910013B11740D2B0BD8D4
:102E3400DFE803F021071B070A152121150A071BE8
:102E440007215369013B53615DF8044B7047137CC0
:102E540003F003030029E6D043F00403E3E75369D6
:102E64005DF8044B023B5361704753695DF8044BB2
:102E740002335361704753695DF8044B0133536166
:102E8400704700BF0C460120214BD3F8C8201368BB
:102E940050681968936810B404681940D0680442F3
:102EA4001BD0137C03F0030309B143F0040343F084
:102EB40008039910013B11740D2B0BD8DFE803F0C4
:102EC40021071B070A152121150A071B072153692E
:102ED400013B53615DF8044B7047137C03F003031B
:102EE4000029E6D043F00403E3E753695DF8044B9B
:102EF400023B5361704753695DF8044B02335361DD
:102F0400704753695DF8044B01335361704700BF48
:102F14000C460120214BD3F8CC2013685068196863
:102F2400936810B404681940D06804421BD0137C21
:102F340003F0030309B143F0040343F008039910B9
:102F4400013B11740D2B0BD8DFE803F021071B079D
:102F54000A152121150A071B07215369013B5361F7
:102F64005DF8044B7047137C03F003030029E6D09B
:102F740043F00403E3E753695DF8044B023B5361F8
:102F8400704753695DF8044B0233536170475369CA
:102F94005DF8044B01335361704700BF0C460120B8
:102FA400214BD3F8D020136850681968936810B483
:102FB40004681940D06804421BD0137C03F0030357
:102FC40009B143F0040343F008039910013B117461
:102FD4000D2B0BD8DFE803F021071B070A1521216D
:102FE400150A071B07215369013B53615DF8044B24
:102FF4007047137C03F003030029E6D043F0040375
:10300400E3E753695DF8044B023B5361704753692E
:103014005DF8044B02335361704753695DF8044B08
:1030240001335361704700BF0C460120214BD3F894
:10303400D420136850681968936810B40468194060
:10304400D06804421BD0137C03F0030309B143F09E
:10305400040343F008039910013B11740D2B0BD8A2
:10306400DFE803F021071B070A152121150A071BB6
:1030740007215369013B53615DF8044B7047137C8E
:1030840003F003030029E6D043F00403E3E75369A4
:103094005DF8044B023B5361704753695DF8044B80
:1030A40002335361704753695DF8044B0133536134
:1030B400704700BF0C460120214BD3F8D820136879
:1030C40050681968936810B404681940D0680442C1
:1030D4001BD0137C03F0030309B143F0040343F052
:1030E40008039910013B11740D2B0BD8DFE803F092
:1030F40021071B070A152121150A071B07215369FC
:10310400013B53615DF8044B7047137C03F00303E8
:103114000029E6D043F00403E3E753695DF8044B68
:10312400023B5361704753695DF8044B02335361AA
:10313400704753695DF8044B01335361704700BF16
:103144000C460120204B1A6813685068196893686C
:1031540010B404681940D06804421BD0137C03F0F7
:10316400030309B143F0040343F008039910013B3E
:1031740011740D2B0BD8DFE803F021071B070A1588
:103184002121150A071B07215369013B53615DF88F
:10319400044B7047137C03F003030029E6D043F08B
:1031A4000403E3E753695DF8044B023B5361704742
:1031B40053695DF8044B02335361704753695DF8FA
:1031C400044B0133536170470C460120204B5A686D
:1031D400136850681968936810B404681940D0687B
:1031E40004421BD0137C03F0030309B143F004032E
:1031F40043F008039910013B11740D2B0BD8DFE841
:1032040003F021071B070A152121150A071B0721B3
:103214005369013B53615DF8044B7047137C03F021
:1032240003030029E6D043F00403E3E753695DF8A0
:10323400044B023B5361704753695DF8044B0233FE
:103244005361704753695DF8044B01335361704710
:103254000C460120204B9A681368506819689368DB
:1032640010B404681940D06804421BD0137C03F0E6
:10327400030309B143F0040343F008039910013B2D
:1032840011740D2B0BD8DFE803F021071B070A1577
:103294002121150A071B07215369013B53615DF87E
:1032A400044B7047137C03F003030029E6D043F07A
:1032B4000403E3E753695DF8044B023B5361704731
:1032C40053695DF8044B02335361704753695DF8E9
:1032D400044B0133536170470C460120204BDA68DC
:1032E400136850681968936810B404681940D0686A
:1032F40004421BD0137C03F0030309B143F004031D
:1033040043F008039910013B11740D2B0BD8DFE82F
:1033140003F021071B070A152121150A071B0721A2
:103324005369013B53615DF8044B7047137C03F010
:1033340003030029E6D043F00403E3E753695DF88F
:10334400044B023B5361704753695DF8044B0233ED
:103354005361704753695DF8044B013353617047FF
:103364000C460120204B1A69136850681968936849
:1033740010B404681940D06804421BD0137C03F0D5
:10338400030309B143F0040343F008039910013B1C
:1033940011740D2B0BD8DFE803F021071B070A1566
:1033A4002121150A071B07215369013B53615DF86D
:1033B400044B7047137C03F003030029E6D043F069
:1033C4000403E3E753695DF8044B023B5361704720
:1033D40053695DF8044B02335361704753695DF8D8
:1033E400044B0133536170470C460120204B5A694A
:1033F400136850681968936810B404681940D06859
:1034040004421BD0137C03F0030309B143F004030B
:1034140043F008039910013B11740D2B0BD8DFE81E
:1034240003F021071B070A152121150A071B072191
:103434005369013B53615DF8044B7047137C03F0FF
:1034440003030029E6D043F00403E3E753695DF87E
:10345400044B023B5361704753695DF8044B0233DC
:103464005361704753695DF8044B013353617047EE
:103474000C460120204B9A691368506819689368B8
:1034840010B404681940D06804421BD0137C03F0C4
:10349400030309B143F0040343F008039910013B0B
:1034A40011740D2B0BD8DFE803F021071B070A1555
:1034B4002121150A071B07215369013B53615DF85C
:1034C400044B7047137C03F003030029E6D043F058
:1034D4000403E3E753695DF8044B023B536170470F
:1034E40053695DF8044B02335361704753695DF8C7
:1034F400044B0133536170470C460120204BDA69B9
:10350400136850681968936810B404681940D06847
:1035140004421BD0137C03F0030309B143F00403FA
:1035240043F008039910013B11740D2B0BD8DFE80D
:1035340003F021071B070A152121150A071B072180
:103544005369013B53615DF8044B7047137C03F0EE
:1035540003030029E6D043F00403E3E753695DF86D
:10356400044B023B5361704753695DF8044B0233CB
:103574005361704753695DF8044B013353617047DD
:103584000C460120204B1A6A136850681968936826
:1035940010B404681940D06804421BD0137C03F0B3
:1035A400030309B143F0040343F008039910013BFA
:1035B40011740D2B0BD8DFE803F021071B070A1544
:1035C4002121150A071B07215369013B53615DF84B
:1035D400044B7047137C03F003030029E6D043F047
:1035E4000403E3E753695DF8044B023B53617047FE
:1035F40053695DF8044B02335361704753695DF8B6
:10360400044B0133536170470C460120204B5A6A26
:10361400136850681968936810B404681940D06836
:1036240004421BD0137C03F0030309B143F00403E9
:1036340043F008039910013B11740D2B0BD8DFE8FC
:1036440003F021071B070A152121150A071B07216F
:103654005369013B53615DF8044B7047137C03F0DD
:1036640003030029E6D043F00403E3E753695DF85C
:10367400044B023B5361704753695DF8044B0233BA
:103684005361704753695DF8044B013353617047CC
:103694000C460120204B9A6A136850681968936895
:1036A40010B404681940D06804421BD0137C03F0A2
:1036B400030309B143F0040343F008039910013BE9
:1036C40011740D2B0BD8DFE803F021071B070A1533
:1036D4002121150A071B07215369013B53615DF83A
:1036E400044B7047137C03F003030029E6D043F036
:1036F4000403E3E753695DF8044B023B53617047ED
:1037040053695DF8044B02335361704753695DF8A4
:10371400044B0133536170470C460120204BDA6A95
:10372400136850681968936810B404681940D06825
:1037340004421BD0137C03F0030309B143F00403D8
:1037440043F008039910013B11740D2B0BD8DFE8EB
:1037540003F021071B070A152121150A071B07215E
:103764005369013B53615DF8044B7047137C03F0CC
:1037740003030029E6D043F00403E3E753695DF84B
:10378400044B023B5361704753695DF8044B0233A9
:103794005361704753695DF8044B013353617047BB
:1037A4000C460120204B1A6B136850681968936803
:1037B40010B404681940D06804421BD0137C03F091
:1037C400030309B143F0040343F008039910013BD8
:1037D40011740D2B0BD8DFE803F021071B070A1522
:1037E4002121150A071B07215369013B53615DF829
:1037F400044B7047137C03F003030029E6D043F025
:103804000403E3E753695DF8044B023B53617047DB
:1038140053695DF8044B02335361704753695DF893
:10382400044B0133536170470C460120204B5A6B03
:10383400136850681968936810B404681940D06814
:1038440004421BD0137C03F0030309B143F00403C7
:1038540043F008039910013B11740D2B0BD8DFE8DA
:1038640003F021071B070A152121150A071B07214D
:103874005369013B53615DF8044B7047137C03F0BB
:1038840003030029E6D043F00403E3E753695DF83A
:10389400044B023B5361704753695DF8044B023398
:1038A4005361704753695DF8044B013353617047AA
:1038B4000C460120204B9A6B136850681968936872
:1038C40010B404681940D06804421BD0137C03F080
:1038D400030309B143F0040343F008039910013BC7
:1038E40011740D2B0BD8DFE803F021071B070A1511
:1038F4002121150A071B07215369013B53615DF818
:10390400044B7047137C03F003030029E6D043F013
:103914000403E3E753695DF8044B023B53617047CA
:1039240053695DF8044B02335361704753695DF882
:10393400044B0133536170470C460120204BDA6B72
:10394400136850681968936810B404681940D06803
:1039540004421BD0137C03F0030309B143F00403B6
:1039640043F008039910013B11740D2B0BD8DFE8C9
:1039740003F021071B070A152121150A071B07213C
:103984005369013B53615DF8044B7047137C03F0AA
:1039940003030029E6D043F00403E3E753695DF829
:1039A400044B023B5361704753695DF8044B023387
:1039B4005361704753695DF8044B01335361704799
:1039C4000C460120204B1A6C1368506819689368E0
:1039D40010B404681940D06804421BD0137C03F06F
:1039E400030309B143F0040343F008039910013BB6
:1039F40011740D2B0BD8DFE803F021071B070A1500
:103A04002121150A071B07215369013B53615DF806
:103A1400044B7047137C03F003030029E6D043F002
:103A24000403E3E753695DF8044B023B53617047B9
:103A340053695DF8044B02335361704753695DF871
:103A4400044B0133536170470C460120204B5A6CE0
:103A5400136850681968936810B404681940D068F2
:103A640004421BD0137C03F0030309B143F00403A5
:103A740043F008039910013B11740D2B0BD8DFE8B8
:103A840003F021071B070A152121150A071B07212B
:103A94005369013B53615DF8044B7047137C03F099
:103AA40003030029E6D043F00403E3E753695DF818
:103AB400044B023B5361704753695DF8044B023376
:103AC4005361704753695DF8044B01335361704788
:103AD4000C460120204B9A6C13685068196893684F
:103AE40010B404681940D06804421BD0137C03F05E
:103AF400030309B143F0040343F008039910013BA5
:103B040011740D2B0BD8DFE803F021071B070A15EE
:103B14002121150A071B07215369013B53615DF8F5
:103B2400044B7047137C03F003030029E6D043F0F1
:103B34000403E3E753695DF8044B023B53617047A8
:103B440053695DF8044B02335361704753695DF860
:103B5400044B0133536170470C460120204BDA6C4F
:103B6400136850681968936810B404681940D068E1
:103B740004421BD0137C03F0030309B143F0040394
:103B840043F008039910013B11740D2B0BD8DFE8A7
:103B940003F021071B070A152121150A071B07211A
:103BA4005369013B53615DF8044B7047137C03F088
:103BB40003030029E6D043F00403E3E753695DF807
:103BC400044B023B5361704753695DF8044B023365
:103BD4005361704753695DF8044B01335361704777
:103BE4000C460120204B1A6D1368506819689368BD
:103BF40010B404681940D06804421BD0137C03F04D
:103C0400030309B143F0040343F008039910013B93
:103C140011740D2B0BD8DFE803F021071B070A15DD
:103C24002121150A071B07215369013B53615DF8E4
:103C3400044B7047137C03F003030029E6D043F0E0
:103C44000403E3E753695DF8044B023B5361704797
:103C540053695DF8044B02335361704753695DF84F
:103C6400044B0133536170470C460120204B5A6DBD
:103C7400136850681968936810B404681940D068D0
:103C840004421BD0137C03F0030309B143F0040383
:103C940043F008039910013B11740D2B0BD8DFE896
:103CA40003F021071B070A152121150A071B072109
:103CB4005369013B53615DF8044B7047137C03F077
:103CC40003030029E6D043F00403E3E753695DF8F6
:103CD400044B023B5361704753695DF8044B023354
:103CE4005361704753695DF8044B01335361704766
:103CF4000C460120204B9A6D13685068196893682C
:103D040010B404681940D06804421BD0137C03F03B
:103D1400030309B143F0040343F008039910013B82
:103D240011740D2B0BD8DFE803F021071B070A15CC
:103D34002121150A071B07215369013B53615DF8D3
:103D4400044B7047137C03F003030029E6D043F0CF
:103D54000403E3E753695DF8044B023B5361704786
:103D640053695DF8044B02335361704753695DF83E
:103D7400044B0133536170470C460120204BDA6D2C
:103D8400136850681968936810B404681940D068BF
:103D940004421BD0137C03F0030309B143F0040372
:103DA40043F008039910013B11740D2B0BD8DFE885
:103DB40003F021071B070A152121150A071B0721F8
:103DC4005369013B53615DF8044B7047137C03F066
:103DD40003030029E6D043F00403E3E753695DF8E5
:103DE400044B023B5361704753695DF8044B023343
:103DF4005361704753695DF8044B01335361704755
:103E04000C460120204B1A6E136850681968936899
:103E140010B404681940D06804421BD0137C03F02A
:103E2400030309B143F0040343F008039910013B71
:103E340011740D2B0BD8DFE803F021071B070A15BB
:103E44002121150A071B07215369013B53615DF8C2
:103E5400044B7047137C03F003030029E6D043F0BE
:103E64000403E3E753695DF8044B023B5361704775
:103E740053695DF8044B02335361704753695DF82D
:103E8400044B0133536170470C460120204B5A6E9A
:103E9400136850681968936810B404681940D068AE
:103EA40004421BD0137C03F0030309B143F0040361
:103EB40043F008039910013B11740D2B0BD8DFE874
:103EC40003F021071B070A152121150A071B0721E7
:103ED4005369013B53615DF8044B7047137C03F055
:103EE40003030029E6D043F00403E3E753695DF8D4
:103EF400044B023B5361704753695DF8044B023332
:103F04005361704753695DF8044B01335361704743
:103F14000C460120204B9A6E136850681968936808
:103F240010B404681940D06804421BD0137C03F019
:103F3400030309B143F0040343F008039910013B60
:103F440011740D2B0BD8DFE803F021071B070A15AA
:103F54002121150A071B07215369013B53615DF8B1
:103F6400044B7047137C03F003030029E6D043F0AD
:103F74000403E3E753695DF8044B023B5361704764
:103F840053695DF8044B02335361704753695DF81C
:103F9400044B0133536170470C460120204BDA6E09
:103FA400136850681968936810B404681940D0689D
:103FB40004421BD0137C03F0030309B143F0040350
:103FC40043F008039910013B11740D2B0BD8DFE863
:103FD40003F021071B070A152121150A071B0721D6
:103FE4005369013B53615DF8044B7047137C03F044
:103FF40003030029E6D043F00403E3E753695DF8C3
:10400400044B023B5361704753695DF8044B023320
:104014005361704753695DF8044B01335361704732
:104024000C460120204B1A6F136850681968936876
:1040340010B404681940D06804421BD0137C03F008
:10404400030309B143F0040343F008039910013B4F
:1040540011740D2B0BD8DFE803F021071B070A1599
:104064002121150A071B07215369013B53615DF8A0
:10407400044B7047137C03F003030029E6D043F09C
:104084000403E3E753695DF8044B023B5361704753
:1040940053695DF8044B02335361704753695DF80B
:1040A400044B0133536170470C460120204B5A6F77
:1040B400136850681968936810B404681940D0688C
:1040C40004421BD0137C03F0030309B143F004033F
:1040D40043F008039910013B11740D2B0BD8DFE852
:1040E40003F021071B070A152121150A071B0721C5
:1040F4005369013B53615DF8044B7047137C03F033
:1041040003030029E6D043F00403E3E753695DF8B1
:10411400044B023B5361704753695DF8044B02330F
:104124005361704753695DF8044B01335361704721
:104134000C460120204B9A6F1368506819689368E5
:1041440010B404681940D06804421BD0137C03F0F7
:10415400030309B143F0040343F008039910013B3E
:1041640011740D2B0BD8DFE803F021071B070A1588
:104174002121150A071B07215369013B53615DF88F
:10418400044B7047137C03F003030029E6D043F08B
:104194000403E3E753695DF8044B023B5361704742
:1041A40053695DF8044B02335361704753695DF8FA
:1041B400044B0133536170470C460120204BDA6FE6
:1041C400136850681968936810B404681940D0687B
:1041D40004421BD0137C03F0030309B143F004032E
:1041E40043F008039910013B11740D2B0BD8DFE841
:1041F40003F021071B070A152121150A071B0721B4
:104204005369013B53615DF8044B7047137C03F021
:1042140003030029E6D043F00403E3E753695DF8A0
:10422400044B023B5361704753695DF8044B0233FE
:104234005361704753695DF8044B01335361704710
:104244000C460120214BD3F880201368506819686C
:10425400936810B404681940D06804421BD0137CDE
:1042640003F0030309B143F0040343F00803991076
:10427400013B11740D2B0BD8DFE803F021071B075A
:104284000A152121150A071B07215369013B5361B4
:104294005DF8044B7047137C03F003030029E6D058
:1042A40043F00403E3E753695DF8044B023B5361B5
:1042B400704753695DF8044B023353617047536987
:1042C4005DF8044B01335361704700BF0C46012075
:1042D400214BD3F88420136850681968936810B48C
:1042E40004681940D06804421BD0137C03F0030314
:1042F40009B143F0040343F008039910013B11741E
:104304000D2B0BD8DFE803F021071B070A15212129
:10431400150A071B07215369013B53615DF8044BE0
:104324007047137C03F003030029E6D043F0040331
:10433400E3E753695DF8044B023B536170475369EB
:104344005DF8044B02335361704753695DF8044BC5
:1043540001335361704700BF0C460120214BD3F851
:104364008820136850681968936810B40468194069
:10437400D06804421BD0137C03F0030309B143F05B
:10438400040343F008039910013B11740D2B0BD85F
:10439400DFE803F021071B070A152121150A071B73
:1043A40007215369013B53615DF8044B7047137C4B
:1043B40003F003030029E6D043F00403E3E7536961
:1043C4005DF8044B023B5361704753695DF8044B3D
:1043D40002335361704753695DF8044B01335361F1
:1043E400704700BF0C460120214BD3F88C20136882
:1043F40050681968936810B404681940D06804427E
:104404001BD0137C03F0030309B143F0040343F00E
:1044140008039910013B11740D2B0BD8DFE803F04E
:1044240021071B070A152121150A071B07215369B8
:10443400013B53615DF8044B7047137C03F00303A5
:104444000029E6D043F00403E3E753695DF8044B25
:10445400023B5361704753695DF8044B0233536167
:10446400704753695DF8044B01335361704700BFD3
:104474000C460120214BD3F890201368506819682A
:10448400936810B404681940D06804421BD0137CAC
:1044940003F0030309B143F0040343F00803991044
:1044A400013B11740D2B0BD8DFE803F021071B0728
:1044B4000A152121150A071B07215369013B536182
:1044C4005DF8044B7047137C03F003030029E6D026
:1044D40043F00403E3E753695DF8044B023B536183
:1044E400704753695DF8044B023353617047536955
:1044F4005DF8044B01335361704700BF0C46012043
:10450400214BD3F89420136850681968936810B449
:1045140004681940D06804421BD0137C03F00303E1
:1045240009B143F0040343F008039910013B1174EB
:104534000D2B0BD8DFE803F021071B070A152121F7
:10454400150A071B07215369013B53615DF8044BAE
:104554007047137C03F003030029E6D043F00403FF
:10456400E3E753695DF8044B023B536170475369B9
:104574005DF8044B02335361704753695DF8044B93
:1045840001335361704700BF0C460120214BD3F81F
:104594009820136850681968936810B40468194027
:1045A400D06804421BD0137C03F0030309B143F029
:1045B400040343F008039910013B11740D2B0BD82D
:1045C400DFE803F021071B070A152121150A071B41
:1045D40007215369013B53615DF8044B7047137C19
:1045E40003F003030029E6D043F00403E3E753692F
:1045F4005DF8044B023B5361704753695DF8044B0B
:1046040002335361704753695DF8044B01335361BE
:10461400704700BF0C460120214BD3F89C2013683F
:1046240050681968936810B404681940D06804424B
:104634001BD0137C03F0030309B143F0040343F0DC
:1046440008039910013B11740D2B0BD8DFE803F01C
:1046540021071B070A152121150A071B0721536986
:10466400013B53615DF8044B7047137C03F0030373
:104674000029E6D043F00403E3E753695DF8044BF3
:10468400023B5361704753695DF8044B0233536135
:10469400704753695DF8044B01335361704700BFA1
:1046A4000C460120214BD3F8A020136850681968E8
:1046B400936810B404681940D06804421BD0137C7A
:1046C40003F0030309B143F0040343F00803991012
:1046D400013B11740D2B0BD8DFE803F021071B07F6
:1046E4000A152121150A071B07215369013B536150
:1046F4005DF8044B7047137C03F003030029E6D0F4
:1047040043F00403E3E753695DF8044B023B536150
:10471400704753695DF8044B023353617047536922
:104724005DF8044B01335361704700BF0C46012010
:10473400214BD3F8A420136850681968936810B407
:1047440004681940D06804421BD0137C03F00303AF
:1047540009B143F0040343F008039910013B1174B9
:104764000D2B0BD8DFE803F021071B070A152121C5
:10477400150A071B07215369013B53615DF8044B7C
:104784007047137C03F003030029E6D043F00403CD
:10479400E3E753695DF8044B023B53617047536987
:1047A4005DF8044B02335361704753695DF8044B61
:1047B40001335361704700BF0C460120214BD3F8ED
:1047C400A820136850681968936810B404681940E5
:1047D400D06804421BD0137C03F0030309B143F0F7
:1047E400040343F008039910013B11740D2B0BD8FB
:1047F400DFE803F021071B070A152121150A071B0F
:1048040007215369013B53615DF8044B7047137CE6
:1048140003F003030029E6D043F00403E3E75369FC
:104824005DF8044B023B5361704753695DF8044BD8
:1048340002335361704753695DF8044B013353618C
:10484400704700BF0C460120214BD3F8AC201368FD
:1048540050681968936810B404681940D068044219
:104864001BD0137C03F0030309B143F0040343F0AA
:1048740008039910013B11740D2B0BD8DFE803F0EA
:1048840021071B070A152121150A071B0721536954
:10489400013B53615DF8044B7047137C03F0030341
:1048A4000029E6D043F00403E3E753695DF8044BC1
:1048B400023B5361704753695DF8044B0233536103
:1048C400704753695DF8044B01335361704700BF6F
:1048D4000C460120214BD3F8B020136850681968A6
:1048E400936810B404681940D06804421BD0137C48
:1048F40003F0030309B143F0040343F008039910E0
:10490400013B11740D2B0BD8DFE803F021071B07C3
:104914000A152121150A071B07215369013B53611D
:104924005DF8044B7047137C03F003030029E6D0C1
:1049340043F00403E3E753695DF8044B023B53611E
:10494400704753695DF8044B0233536170475369F0
:104954005DF8044B01335361704700BF0C460120DE
:10496400214BD3F8B420136850681968936810B4C5
:1049740004681940D06804421BD0137C03F003037D
:1049840009B143F0040343F008039910013B117487
:104994000D2B0BD8DFE803F021071B070A15212193
:1049A400150A071B07215369013B53615DF8044B4A
:1049B4007047137C03F003030029E6D043F004039B
:1049C400E3E753695DF8044B023B53617047536955
:1049D4005DF8044B02335361704753695DF8044B2F
:1049E40001335361704700BF0C460120214BD3F8BB
:1049F400B820136850681968936810B404681940A3
:104A0400D06804421BD0137C03F0030309B143F0C4
:104A1400040343F008039910013B11740D2B0BD8C8
:104A2400DFE803F021071B070A152121150A071BDC
:104A340007215369013B53615DF8044B7047137CB4
:104A440003F003030029E6D043F00403E3E75369CA
:104A54005DF8044B023B5361704753695DF8044BA6
:104A640002335361704753695DF8044B013353615A
:104A7400704700BF0C46012038B50C460546084671
:104A840057F036FA214602462846BDE8384050F031
:104A940089BF00BF70B5044608460D4657F028FA92
:104AA40023680246294620465B68BDE870401847E3
:104AB40038B5054650F00CFD0446284650F02EFD4E
:104AC400204438BD38B5044608460D4657F010FA60
:104AD40023680246294620465B68984705462046D7
:104AE40050F01CFD284438BD38B5054650F066FD2D
:104AF4000446284650F012FD204438BD2DE9F04705
:104B04000E4615460446022130464FF0000A51F085
:104B14000DFC28460221DFF8C49251F007FCA04A9C
:104B24003301A049280102EB030E52F80380171841
:104B34004FF4FA63DEF80CE0C4F80080C4F808E02F
:104B4400FF6852F800C00846C4F814A0E760DFF814
:104B540090A20968D9F80020C4F804C0AAFB029204
:104B6400920C03FB02F203685B1A9A42FBD8D8F852
:104B74000030DCF800201EEA030F14BF01230023D9
:104B8400174202D043F00203DBB22374362E00F244
:104B94008E85DFE816F07F0575056B056105570501
:104BA4004D05430539052F0525051B051105070589
:104BB400FD04F304E904DF04D504CB04C104B70401
:104BC400AD04A30499048F0485047B0425041C0408
:104BD40013040A040104F703ED03E303D903CF0329
:104BE400C503BB03B103A7039D03930389037F0399
:104BF40075036B03610357034D03430339032F0309
:104C040025033700684B042268493620C3F8D8408E
:104C140051F0F2FB01232376362D00F24585DFE8BF
:104C240015F0D502CB02C102B702AD02A30299026C
:104C34008F0285027B022C02220218020E02040259
:104C4400FA01F001E601DC01D201C801BE01B401A0
:104C5400AA01A00196018C01820178016E01640110
:104C64005A014F01440139012E01230118010D019C
:104C74000201F700EC00E100B400A9009E009300DB
:104C840088007D00720067005C0051004600370018
:104C9400454B042245493620C3F8D84051F0ACFBBB
:104CA400237E0122134420462376BDE8F0873E4B41
:104CB40004223F493520C3F8D44051F09DFB237EA4
:104CC4000122EFE7384B04223A493420C3F8D0409C
:104CD40051F092FB237E0122E4E7334B0422364950
:104CE4003320C3F8CC4051F087FB237E0122D9E75F
:104CF4002D4B042231493220C3F8C84051F07CFBCB
:104D0400237E0122CEE7284B04222D493120C3F80B
:104D1400C44051F071FB237E0122C3E7224B0422DD
:104D240028493020C3F8C04051F066FB237E01229D
:104D3400B8E71D4B042224492F20C3F8BC4051F08E
:104D44005BFB237E0122ADE7174B04221F492E2073
:104D5400C3F8B84051F050FB237E0122A2E7124B66
:104D640004221B492D20C3F8B44051F045FB237E97
:104D7400012297E70C4B042216492C20C3F8B040BB
:104D840051F03AFB237E01228CE7074B042212499F
:104D94002B20C3F8AC4051F02FFB237E012281E786
:104DA400D8080020041000E00C460120490E000041
:104DB400BD0D0000310D0000A50C0000190C000011
:104DC4008D0B0000010B0000750A00007D27000018
:104DD400F126000065260000D92500004474002057
:104DE40083DE1B43AA4B0422AA492A20C3F8A84005
:104DF40051F002FB237E012254E7A54B0422A6496D
:104E04002920C3F8A44051F0F7FA237E012249E790
:104E14009F4B0422A1492820C3F8A04051F0ECFA8A
:104E2400237E01223EE79A4B04229D492720C3F8A2
:104E34009C4051F0E1FA237E012233E7944B042293
:104E440098492620C3F8984051F0D6FA237E0122CF
:104E540028E78F4B042294492520C3F8944051F04D
:104E6400CBFA237E01221DE7894B04228F4924209B
:104E7400C3F8904051F0C0FA237E012212E7844B1C
:104E840004228B492320C3F88C4051F0B5FA237EC9
:104E9400012207E77E4B042286492220C3F888407A
:104EA40051F0AAFA237E0122FCE6794B04228249BE
:104EB4002120C3F8844051F09FFA237E0122F1E6B9
:104EC400734B04227D492020C3F8804051F094FAAA
:104ED400237E0122E6E66E4B042279491F20DC671B
:104EE40051F08AFA237E0122DCE6694B04227549DB
:104EF4001E209C6751F080FA237E0122D2E6644B87
:104F0400042271491D205C6751F076FA237E012248
:104F1400C8E65F4B04226D491C201C6751F06CFAF3
:104F2400237E0122BEE65A4B042269491B20DC661B
:104F340051F062FA237E0122B4E6554B04226549FE
:104F44001A209C6651F058FA237E0122AAE6504B9F
:104F54000422614919205C6651F04EFA237E012235
:104F6400A0E64B4B04225D4918201C6651F044FA1C
:104F7400237E012296E6464B042259491720DC651C
:104F840051F03AFA237E01228CE6414B0422554922
:104F940016209C6551F030FA237E012282E63C4BB8
:104FA4000422514915205C6551F026FA237E012222
:104FB40078E6374B04224D4914201C6551F01CFA45
:104FC400237E01226EE6324B042249491320DC641D
:104FD40051F012FA237E012264E62D4B0422454946
:104FE40012209C6451F008FA237E01225AE6284BD1
:104FF4000422414911205C6451F0FEF9237E012210
:1050040050E6234B04223D4910201C6451F0F4F96E
:10501400237E012246E61E4B042239490F20DC631D
:1050240051F0EAF9237E01223CE6194B042235496A
:105034000E209C6351F0E0F9237E012232E6144BEA
:10504400042231490D205C6351F0D6F9237E0122FC
:1050540028E60F4B04222D490C201C6351F0CCF997
:10506400237E01221EE60A4B042229490B20DC621E
:1050740051F0C2F9237E012214E6054B042225498E
:105084000A209C6251F0B8F9237E01220AE600BF8F
:105094000C4601204D250000C124000035240000E9
:1050A400A92300001D230000912200000522000016
:1050B40079210000ED20000061200000D51F0000D0
:1050C4004D1F0000C51E00003D1E0000B51D000060
:1050D4002D1D0000A51C00001D1C0000951B0000D8
:1050E4000D1B0000851A0000FD1900007519000051
:1050F400ED18000065180000DD17000055170000CA
:10510400CD16000045160000BD1500003515000041
:10511400AD14000025140000B64B0422B649092042
:105124005C6251F069F9237E0122BBE5B14B042294
:10513400B24908201C6251F05FF9237E0122B1E5D7
:10514400AC4B0422AE490720DC6151F055F9237EB3
:105154000122A7E5A74B0422AA4906209C6151F02D
:105164004BF9237E01229DE5A24B0422A64905208A
:105174005C6151F041F9237E012293E504229D4BA9
:10518400A24910461C6151F037F9237E012289E5BA
:10519400984B04229E490320DC6051F02DF9237EB4
:1051A40001227FE5934B04229A4902209C6051F02E
:1051B40023F9237E012275E58E4B042296490120B2
:1051C4005C6051F019F9237E01226BE5894B0422BE
:1051D400924900201C6051F00FF9237E012261E501
:1051E400844B04228E493520C3F8D44051F004F98D
:1051F400012310E57F4B04228A493420C3F8D040B0
:1052040051F0FAF8012306E57A4B0422864933204B
:10521400C3F8CC4051F0F0F80123FCE4754B0422B0
:1052240082493220C3F8C84051F0E6F80123F2E481
:10523400704B04227E493120C3F8C44051F0DCF89D
:105244000123E8E46B4B04227A493020C3F8C040C0
:1052540051F0D2F80123DEE4664B042276492F2074
:10526400C3F8BC4051F0C8F80123D4E4614B0422D4
:1052740072492E20C3F8B84051F0BEF80123CAE4A5
:105284005C4B04226E492D20C3F8B44051F0B4F8AD
:105294000123C0E4574B04226A492C20C3F8B040D0
:1052A40051F0AAF80123B6E4524B042266492B209C
:1052B400C3F8AC4051F0A0F80123ACE44D4B0422F8
:1052C40062492A20C3F8A84051F096F80123A2E4C9
:1052D400484B04225E492920C3F8A44051F08CF8BD
:1052E400012398E4434B04225A492820C3F8A040E0
:1052F40051F082F801238EE43E4B042256492720C4
:10530400C3F89C4051F078F8012384E4394B04221B
:1053140052492620C3F8984051F06EF801237AE4EC
:10532400344B04224E492520C3F8944051F064F8CC
:10533400012370E42F4B04224A492420C3F89040EF
:1053440051F05AF8012366E42A4B042246492320EB
:10535400C3F88C4051F050F801235CE4254B04223F
:1053640042492220C3F8884051F046F8012352E410
:10537400204B04223E492120C3F8844051F03CF8DC
:10538400012348E41B4B04223A492020C3F88040FF
:1053940051F032F801233EE4164B042236491F2013
:1053A400DC6751F029F8012335E4124B0422334918
:1053B4001E209C6751F020F801232CE40D4B04229D
:1053C4002F491D205C6751F017F8012323E4094B92
:1053D40004222C491C201C6751F00EF801231AE406
:1053E400044B042228491B20DC6651F005F80123F4
:1053F40011E400BF0C4601209D13000015130000AA
:105404008D120000051200007D110000F51000004F
:105414006D100000E50F00005D0F0000D50E0000C8
:10542400BD0D0000310D0000A50C0000190C00009A
:105434008D0B0000010B0000750A00007D270000A1
:10544400F126000065260000D92500004D25000046
:10545400C124000035240000A92300001D230000FE
:10546400912200000522000079210000ED200000B7
:1054740061200000D51F00004D1F0000C51E000064
:105484003D1E0000B51D00002D1D0000894B0422A7
:1054940089491A209C6650F0AFFF0123FFF7BBBB7C
:1054A400844B0422854919205C6650F0A5FF012332
:1054B400FFF7B1BB7F4B0422814918201C6650F0D2
:1054C4009BFF0123FFF7A7BB7A4B04227D491720DA
:1054D400DC6550F091FF0123FFF79DBB754B04225F
:1054E400794916209C6550F087FF0123FFF793BB91
:1054F400704B0422754915205C6550F07DFF012333
:10550400FFF789BB6B4B0422714914201C6550F0D2
:1055140073FF0123FFF77FBB664B04226D49132001
:10552400DC6450F069FF0123FFF775BB614B042273
:10553400694912209C6450F05FFF0123FFF76BBBA5
:105544005C4B0422654911205C6450F055FF012333
:10555400FFF761BB574B0422614910201C6450F0D3
:105564004BFF0123FFF757BB524B04225D490F2029
:10557400DC6350F041FF0123FFF74DBB4D4B042288
:1055840059490E209C6350F037FF0123FFF743BBBA
:10559400484B042255490D205C6350F02DFF012334
:1055A400FFF739BB434B042251490C201C6350F0D4
:1055B40023FF0123FFF72FBB3E4B04224D490B2051
:1055C400DC6250F019FF0123FFF725BB394B04229D
:1055D40049490A209C6250F00FFF0123FFF71BBBCF
:1055E400344B0422454909205C6250F005FF012335
:1055F400FFF711BB2F4B0422414908201C6250F0D5
:10560400FBFE0123FFF707BB2A4B04223D49072079
:10561400DC6150F0F1FE0123FFF7FDBA254B0422B3
:10562400394906209C6150F0E7FE0123FFF7F3BAE5
:10563400204B0422354905205C6150F0DDFE012336
:10564400FFF7E9BA04221B4B314910461C6150F0A4
:10565400D3FE0123FFF7DFBA164B04222D490320A2
:10566400DC6050F0C9FE0123FFF7D5BA114B0422C8
:10567400294902209C6050F0BFFE0123FFF7CBBAFA
:105684000C4B0422254901205C6050F0B5FE012337
:10569400FFF7C1BA074B0422214900201C6050F0D7
:1056A400ABFE0123FFF7B7BA0022FFF7FBBA0023D2
:1056B400FFF7B1BA0C460120A51C00001D1C000018
:1056C400951B00000D1B0000851A0000FD19000049
:1056D40075190000ED18000065180000DD170000C2
:1056E40055170000CD16000045160000BD1500003A
:1056F40035150000AD140000251400009D130000B2
:10570400151300008D120000051200007D11000029
:10571400F51000006D100000E50F00005D0F0000A3
:10572400D50E00002DE9F84FDFF89C901422DFF825
:105734009C8099F8004098F80030214912FB04330A
:10574400067A81FB0324DA17C2EB641404EB8404A5
:10575400A3EB041426B305468B464FF0000A194FF9
:105764005146284650F004FA8BFB0432E317611CBF
:105774000AF1010A0078C3EBE2038BFB012C4FEA28
:10578400E17EB24503EB8302A4EB8202CEEB6C1400
:1057940007EB820204EB8404D054A1EB0414DFD1A0
:1057A400074BE21783FB0413C2EBE30303EB83020F
:1057B40089F80030A4EB820488F80040BDE8F88F33
:1057C40067666666384D0120A89B0120A79B0120CF
:1057D40070B50E4B0C4684B002F00302A3FB041315
:1057E4000B4E0C4D01461B096846327003EB8303D4
:1057F400A4EB83032B704FF0DDFF6846FFF792FFA5
:1058040068464FF071FF04B070BD00BFCDCCCCCC66
:10581400A89B0120A79B01202DE9F04F7B4D47F267
:10582400305E7B4E8FB055F8234036680092341BAF
:10583400744540F2AB8045F823609846754B144696
:105844000F46009013F8086090F80890724D002EEF
:1058540000F0A28005EB081501236E4A2846009942
:1058640002F8083050F068F86C4A6D4B12689FEDEE
:105874006D7A43F8282007EE904A6B4BC7EB090278
:10588400CA46F8EEE77A1B78039202EB43000193D1
:10589400C7EE276A654B13F80810FDEEE67A17EE9B
:1058A400903A93FBF0F200FB1233DBB2994202937D
:1058B40000F0A6805E4B142203EB480113F8183065
:1058C40049780493059112FB0132FFB10026DFF8F9
:1058D40074B1584B4FF0200C83FB0210D117541CA9
:1058E4000136C1EBE001E51783FB040E01EB8100F7
:1058F400B742A2EB8000C5EB6E120BEB800002EB0B
:10590400820200F801C0A4EB0212E5D14A4A9DF8D4
:1059140010104A4B11709DF814201A70019B029AC2
:10592400934236D8019BC3F10104029B2344DCB2A9
:105934002346039A9A4202DAC7EB0904E4B2B94552
:1059440043D9002106A84FF00FFFE319224600991E
:105954000AA850F071F90AA906A84FF0F5FF0AA8A1
:105964004FF0C2FE06A90AA84FF024FF0AA8FFF7C9
:10597400D9FE0AA84FF0B8FE06A84FF0B5FE2B4B8F
:1059840003F808400023234A02F808300FB0BDE8AA
:10599400F08F00231C46CCE705EB0815014628468A
:1059A40050F0C2F800283FF457AF1A4BB94503F83A
:1059B4000860EBD3194B1A4A1B6852F828209B1A2B
:1059C40007EE903AB8EE677A55E700990AA84FF0C7
:1059D400F1FE0AA8FFF7A6FE0AA84FF085FEB94516
:1059E400CDDA17490AA84FF0BFFE0AF1010A0AA846
:1059F400FFF798FE0AA84FF077FE5745F1D1BEE7AE
:105A0400044B13F80830002BBCD053E74459012051
:105A14006060012048340120543401206460012076
:105A24000035012000000000C3BE0020F434012032
:105A34003499012067666666A79B0120A89B012014
:105A440050520020384D0120002927DD30B4B0FA2F
:105A540080F464090CBB026AFAB113461B6A013470
:105A6400002BFBD18C4218DB0546044604E0994226
:105A7400254609DD1446126A0133002AF7D122466D
:105A840099422C462546F5DC904206D0136A10460E
:105A94002421236230BC50F005BE30BC704700BFE7
:105AA4000B7803704B784370CB68C3608B7E83762E
:105AB4008B6883604B7E43768B7883704B6943613C
:105AC400CB78C3700B7903710B7E0A7C0376027466
:105AD40091F91B30C37691F91C30037791F91D308D
:105AE400437791F91E30837791F91F30C3770B6A9E
:105AF4000362704784B0F8B507AE054686E80E0029
:105B040000E025462C6A002CFBD1242050F0C8FD6F
:105B140031462862FFF7C4FF04760462BDE8F8400A
:105B240004B070470131002927DD30B4B0FA80F4A5
:105B340064090CBB026AFAB113461B6A0134002BD8
:105B4400FBD1A14218DC0546044604E099422546EF
:105B540009DD1446126A0133002AF7D1224699421C
:105B64002C462546F5DC824206D0136A10462421D1
:105B7400236230BC50F096BD30BC7047013100291F
:105B84000EDD30B4B0FA80F56D0945B9046A34B15C
:105B940023461B6A0135002BFBD1A94202DD30BC30
:105BA4007047246A0133002C08BF044699422046FA
:105BB400F7DC2046114630BCFFF772BF70B50646CD
:105BC4008AB061B10132002A09DD096A39B10B4694
:105BD40000201B6A0130002BFBD182420EDD104DE8
:105BE40034460FCD0FC40FCD0FC42D683046256049
:105BF4000AB070BD086A002818BF014601339A42F2
:105C0400F8D101AC01A8FFF74BFF35460FCC0FC507
:105C14000FCC0FC5246830462C600AB070BD00BF9D
:105C2400F85301202DE9F043DFF850908BB059F878
:105C34002120136AEBB100261B6A0136002BFBD12D
:105C4400CEB10F4680461D4611461C4601E059F868
:105C54002710224601A8FFF7B1FF9DF80530013453
:105C6400434508BF0135A642F1D128460BB0BDE833
:105C7400F0831D46F9E73546F7E700BFB46001201D
:105C84002DE9F041002580460E46471E2C46A642CB
:105C94004FF0000002D07E2F06D905440134042CB5
:105CA400F5D12846BDE8F081E1B24046FFF7BAFFDE
:105CB400F3E700BF90B1034610B50446A34218466B
:105CC4004FF024011B6A06D0236250F0EBFC236AD8
:105CD400002BF3D110BD002BF0D110BD704700BFD5
:105CE400F8B50746D8B10446064645785DB9437E03
:105CF400502B08D086421AD0036A2421236250F024
:105D0400D1FC206A10B3037E5BB18642056A19D0C8
:105D14002562242150F0C6FC206A0028E5D13846CB
:105D2400F8BD0446206A0028DFD13846F8BD037E5A
:105D340053B1046A8CB12421274650F0B3FC2646A3
:105D44002046D2E72C46F5E73446EBE7237E002BCA
:105D5400E5D0A64202D02046DAE7044600232046D6
:105D640023706370A370636123622376F8BD00BF60
:105D740038B50D4B1D68B5B12C462369142118465E
:105D84008BB11A7B4AB19D4207D01B69236150F045
:105D940089FC2469002CF0D138BD1C4614212369E8
:105DA4001846002BEDD138BDB06001202DE9F84331
:105DB400089E0546894690461F4600E025462C6904
:105DC400002CFBD1142050F06BFCD9F80010D8F84B
:105DD40000202861866047730473046180E806002C
:105DE400BDE8F883114B1B681B6AE3B1F0B40024CF
:105DF4000D784FF4FA77204602E01B6A013483B130
:105E04001978A942F9D159781678891B0029B8BFA5
:105E140049428F42F1DD1B6A20460F460134002BB4
:105E2400EED1F0BC70471846704700BF00710120E6
:105E3400002832D038B50546044643786BB9437E12
:105E4400B02B0AD0502B08D0A84218D0036A2421C2
:105E5400236250F027FC206AC8B1037E53B1A842E4
:105E64000FD0036A2421236250F01CFC206A00280E
:105E7400E3D138BD0446206A0028DED138BD2B7E2C
:105E84001BB1286A40B12C46D7E72C46F3E7237EA2
:105E94000BB12046E3E738BD38BD70472DE9F0412A
:105EA400134F8AB03B681C6AECB10025246A0135A3
:105EB400002CFBD1BDB188460646194602E0AC422F
:105EC40011D03968224601A8FFF778FE9DF8053005
:105ED4000134B342F3D19DF804304345EFD101209E
:105EE4000AB0BDE8F08100200AB0BDE8F08100BF2F
:105EF400506301202DE9F041134F8AB03B681C6ABE
:105F0400ECB10025246A0135002CFBD1BDB18846D3
:105F14000646194602E0AC4211D03968224601A86F
:105F2400FFF74CFE9DF805300134B342F3D19DF8E0
:105F340004304345EFD101200AB0BDE8F0810020D0
:105F44000AB0BDE8F08100BF586301202DE9F0419B
:105F5400134F8AB03B681C6AECB10025246A0135F2
:105F6400002CFBD1BDB188460646194602E0AC427E
:105F740011D03968224601A8FFF720FE9DF80530AC
:105F84000134B342F3D19DF804304345EFD10120ED
:105F94000AB0BDE8F08100200AB0BDE8F08100BF7E
:105FA400546301202DE9F041134F8AB03B681C6A09
:105FB400ECB10025246A0135002CFBD1BDB1884623
:105FC4000646194602E0AC4211D03968224601A8BF
:105FD400FFF7F4FD9DF805300134B342F3D19DF889
:105FE40004304345EFD101200AB0BDE8F081002020
:105FF4000AB0BDE8F08100BF486301202DE9F041FB
:10600400134F8AB03B681C6AF4B10025246A013539
:10601400002CFBD1C5B188460646194602E0AC42C5
:1060240012D03968224601A8FFF7C8FD9DF8053053
:106034000134B342F3D19DF804304345EFD19DF8C8
:1060440007000AB0BDE8F08100200AB0BDE8F08185
:10605400486301202DE9F047DFF8809094B0D9F827
:1060640000301E6A002E35D00027366A0137002E14
:10607400FBD17FB38A468046194604E00136BE420E
:1060840028D0D9F800106D46324668460BACFFF7AD
:1060940095FD0FCD0FC40FCD0FC49DF82D302A6888
:1060A40043452260EAD19DF82C305345E6D10023C4
:1060B40001243146D9F800000BAA8DF82D308DF853
:1060C4002E308DF84440FFF759FD3146D9F80000D1
:1060D400FFF728FD14B0BDE8F08700BF4863012036
:1060E4002DE9F041134F8AB03B681C6AECB10025DE
:1060F400246A0135002CFBD1BDB1884606461946F9
:1061040002E0AC4211D03968224601A8FFF756FDDF
:106114009DF805300134B342F3D19DF80430434572
:10612400EFD101200AB0BDE8F08100200AB0BDE83B
:10613400F08100BF4C6301202DE9F04FDFF8A0800F
:1061440095B0D8F800301D6A002D46D000262D6A7F
:106154000136002DFBD1002E3FD089460746194653
:10616400AA464FF0010B04E00135AE4235D9D8F808
:1061740000102A466846FFF721FDEE460BACBEE848
:106184000F000FC4BEE80F000FC49DF82D30DEF8D9
:106194000020BB422260E7D19DF82C304B45E3D16F
:1061A4000BAA2946D8F800008DF82DA08DF844B02C
:1061B4008DF82EA0FFF7E2FC2946D8F80000FFF77F
:1061C400B1FCD8F800301B6A3BB100261B6A0136CB
:1061D400002BFBD10125AE42C9D815B0BDE8F08F24
:1061E4004C6301202DE9F041134F8AB03B681C6ACF
:1061F400ECB10025246A0135002CFBD1BDB18846E1
:106204000646194602E0AC4211D03968224601A87C
:10621400FFF7D4FC9DF805300134B342F3D19DF867
:1062240004304345EFD101200AB0BDE8F0810020DD
:106234000AB0BDE8F08100BF446301202DE9F041BC
:10624400134F8AB03B681C6AECB10025246A0135FF
:10625400002CFBD1BDB188460646194602E0AC428B
:1062640011D03968224601A8FFF7A8FC9DF8053033
:106274000134B342F3D19DF804304345EFD1039880
:106284000AB0BDE8F08100200AB0BDE8F08100BF8B
:10629400446301202DE9F04FDFF8A08095B0D8F8D1
:1062A40000301D6A002D46D000262D6A0136002DCF
:1062B400FBD1002E3FD0894607461946AA464FF027
:1062C400010B04E00135AE4235D9D8F800102A4656
:1062D4006846FFF773FCEE460BACBEE80F000FC434
:1062E400BEE80F000FC49DF82D30DEF80020BB423D
:1062F4002260E7D19DF82C304B45E3D10BAA294607
:10630400D8F800008DF82DA08DF844B08DF82EA09B
:10631400FFF734FC2946D8F80000FFF703FCD8F84F
:1063240000301B6A3BB100261B6A0136002BFBD1EF
:106334000125AE42C9D815B0BDE8F08F44630120F1
:106344002DE9F04FDFF8848095B0D8F800301D6A4D
:10635400002D37D000262D6A0136002DFBD18EB3D7
:10636400894607461946DFF868B04FF0010A04E091
:106374000135B54226D0D8F800102A466846FFF702
:106384001DFCEE460BACBEE80F000FC4BEE80F00C8
:106394000FC49DF82D30DEF80020BB422260E7D107
:1063A4009DF82C304B45E3D1DBF80030294601350C
:1063B4000BAAD8F800008DF83CA00E93FFF7DEFB83
:1063C400B542D8D115B0BDE8F08F00BF44630120B9
:1063D40064600120002A65DD2DE9F04F1F46324B31
:1063E40083B00C4603EB800380464FF0000A019211
:1063F40000932D4B53F828502C4B1D60B8F1000F1F
:106404004ED0DDF800E040465EF8042D0138134616
:10641400DB6863B359688C42FAD1197A5145F7D1D4
:10642400D26832B153689C42FAD1137A9A45F7D1B3
:106434001268D7F800B0934510D05FFA8AF900E0EB
:106444003546EE68002EFBD1102050F029F9E860A3
:10645400C0F800B0446080F80890C6600AF1010AF0
:10646400019B04375345C4D103B0BDE8F08F002825
:10647400CAD10E4BD3F800903E685FFA8AFB00E065
:10648400A946D9F80C50002DFAD1102050F008F983
:10649400C9F80C000660446080F808B0C560DDE708
:1064A400A946E9E7704700BF2C620120DC4D0120BA
:1064B400002A65DD2DE9F04F1F46324B83B00C46B0
:1064C40003EB800380464FF0000A019200932D4BAA
:1064D40053F828502C4B1D60B8F1000F4ED0DDF856
:1064E40000E040465EF8042D01381346DB6863B3D0
:1064F40059688C42FAD1197A5145F7D1D26832B130
:1065040053689C42FAD1137A9A45F7D1126897F8E6
:1065140000B0934510D05FFA8AF900E03546EE6882
:10652400002EFBD1102050F0BBF8E860C0F800B09A
:10653400446080F80890C6600AF1010A019B0137A3
:106544005345C4D103B0BDE8F08F0028CAD10E4B27
:10655400D3F800903E785FFA8AFB00E0A946D9F8A8
:106564000C50002DFAD1102050F09AF8C9F80C0004
:106574000660446080F808B0C560DDE7A946E9E735
:10658400704700BF2C620120DC4D01201E4B2DE919
:10659400F0411E4D0E4653F8207090462F6048B3CC
:1065A40003EB800252F8044D01382346DB682BB319
:1065B40059688E42FAD1197A0029F7D1E46834B1C6
:1065C40063689E42FAD1237A002BF7D12468A04550
:1065D40001D117E02746FC68002CFBD1102050F0B5
:1065E4005FF8F860C0F8008046600472C460BDE8DB
:1065F400F0812746FC68002CFBD1EFE70028D1D1BD
:106604002F68F7E7BDE8F0812C620120DC4D012002
:106614002DE9F843264C0F46264E914654F8208027
:10662400C6F80080002841D004EB800151F8045DD5
:1066340001382C46E4681CB362689742FAD1227A86
:106644009342F7D1ED6835B169688F42FAD12A7A5D
:106654009342F7D12D68A94526D0DDB200E0A046CB
:10666400D8F80C40002CFAD1102050F019F8C8F8D2
:106674000C00C0F8009047600572C460BDE8F88360
:106684000028D3D13468DEB200E02C46E568002D42
:10669400FBD1102050F004F8E060C0F8009047608F
:1066A4000672C560BDE8F883BDE8F8834446EAE7AE
:1066B4002C620120DC4D0120F8B5D74F044601219E
:1066C40000253A68FFF762FF2046D44B04220221DA
:1066D400D34EFFF77FFE2046D24B04220321FFF75F
:1066E400E7FE04222046D04B1146FFF773FE2046F6
:1066F400CE4B04220521FFF76DFE2046CC4B04222D
:106704000621FFF767FE2046CA4B04220721FFF744
:1067140061FE2046C84B04220921FFF75BFE204698
:10672400C64B04220A21FFF755FE2046C44B04221F
:106734000B21FFF7BDFE2046C24B04220C21FFF7BC
:1067440049FE2046C04B04220D21FFF743FE20469C
:10675400BE4B04220E21FFF73DFE2046BC4B042213
:106764000F21FFF737FE2046BA4B04221021FFF712
:1067740031FE2046B84B04221121FFF72BFE2046A0
:10678400B64B04221221FFF725FE2046B44B042207
:106794001321FFF71FFE2046B24B04221421FFF7FA
:1067A40019FE2046B04B04221521FFF713FE2046A4
:1067B400AE4B04221621FFF70DFE2046AC4B0422FB
:1067C4001721FFF707FE2046AA4B04221821FFF7E2
:1067D40001FEA94B204619211A68FFF7D7FE20466F
:1067E400A64B04221A21FFF7F5FD2046A44B0422F0
:1067F4001B21FFF7EFFD2046A24B04221C21FFF7CB
:10680400E9FD2046A04B04221D21FFF7E3FD2046AD
:106814009E4B04221E21FFF7DDFD20469C4B0422E3
:106824001F21FFF7D7FD20469A4B04222021FFF7B2
:10683400D1FD2046984B04222121FFF7CBFD2046B1
:10684400964B04222221FFF7C5FD2046944B0422D7
:106854002321FFF7BFFD2046924B04222521FFF799
:10686400B9FD2046904B04222621FFF721FE204645
:106874008E4B04222721FFF7ADFD20468C4B0422CA
:106884002821FFF715FE20468A4B04222921FFF711
:10689400A1FD2046884B04222A21FFF79BFD2046B8
:1068A400864B04222B21FFF795FD854B20460422BD
:1068B4002C21FFF78FFD3A6820462D21FFF766FE55
:1068C400804A20462B4612782E21FFF7A1FE7E4BEC
:1068D40020462F211A68FFF759FE7C4B20463021B1
:1068E4001A68FFF753FE2046794B04223121FFF743
:1068F400DFFD2046774B04223221FFF7D9FD2046E5
:10690400754B04223321FFF765FD2046734B0422A7
:106914003421FFF75FFD2046714B04223521FFF738
:10692400C7FD20466F4B04223621FFF753FD204656
:106934006D4B04223721FFF74DFD20466B4B04229B
:106944003821FFF747FD2046694B04223921FFF720
:1069540041FD2046674B04223A21FFF73BFD2046C8
:10696400654B04223B21FFF735FD2046634B04228F
:106974003C21FFF72FFD2046614B04223D21FFF708
:1069840029FD20465F4B04223E21FFF723FD2046CC
:106994005D4B04223F21FFF71DFD20465B4B042283
:1069A4004021FFF785FD2046594B04224121FFF782
:1069B40011FD2046574B04224221FFF70BFD2046D0
:1069C400554B04224321FFF705FD2046534B042277
:1069D4004421FFF76DFD2046514B04224521FFF76A
:1069E400F9FC20464F4B04224621FFF761FD204667
:1069F4004D4B04224721FFF75BFD20464B4B0422FD
:106A04004821FFF7E7FC2046494B04224921FFF7C0
:106A14004FFD20468EE000BF449A0120A4BC002014
:106A24002C740120E44D0120C4BC002038B70020A0
:106A340018B7002074BD0020647201200C7401207A
:106A4400E84D01206C4E012090B6002020B60020B5
:106A540040B6002030B6002080B600201C4E012035
:106A6400D0B6002050B60020B0B60020E0B600201A
:106A74005C4E012070B6002024BD0020C0B600206A
:106A84003C4E01204C4E01202C4E012060B60020CB
:106A9400EC4D0120FC4D0120A0B60020F0B60020F2
:106AA400747201200C4E0120986001209C6001202A
:106AB40084530120985301208853012068B7002093
:106AC400B04D0120B89B0120D84D012000BC00200E
:106AD4008C63012088630120C84D0120F0BB002095
:106AE400A84B0120984B0120B4BC002028B70020FB
:106AF40064BD002038BE002048BE0020BCBD00207C
:106B0400287101201871012038710120E89A0120B0
:106B140028BD002048BC00200CBC002060BC002024
:106B240064BC0020EC700120FC700120DC700120AA
:106B3400B4530120CD4B04224A21FFF74BFC2046DD
:106B4400CB4B04224B21FFF745FC2046C94B0422C2
:106B54004C21FFF7ADFC2046C74B04224D21FFF723
:106B640039FCC64B20464E211A68FFF70FFDC44B73
:106B740020464F211A68FFF709FD2046C14B042225
:106B84005021FFF727FC2046BF4B04225121FFF779
:106B940021FCBE4A20462B4612785221FFF738FDCD
:106BA400BB4B204653211A68FFF7F0FC2046B94B33
:106BB40004225421FFF77CFC2046B74B04225521C4
:106BC400FFF708FC2046B54B04225621FFF702FCD0
:106BD4002046B34B04225721FFF7FCFB2046B14B60
:106BE40004225821FFF7F6FB2046AF4B042259211B
:106BF400FFF7F0FB2046AD4B04225A21FFF7EAFBD6
:106C04002046AB4B04225B21FFF7E4FBA94A204654
:106C14002B4612785C21FFF7FBFCA74A20462B4643
:106C240012785D21FFF7F4FC2046A44B04225E2178
:106C3400FFF7D0FBA24A20462B4612785F21FFF7CC
